S00F00002E2E2F526F626F742E73313954
S32D0000C0000000002075DE0000D1E10000D1E10000D1E10000D1E10000D1E1000000000000000000000000000025
S32D0000C02800000000D1E10000D1E1000000000000D1E10000D1E10000D1E10000D1E10000D1E10000D1E100005A
S32D0000C050D1E10000D1E10000D1E10000D1E10000D1E10000D1E10000D1E10000D1E10000D1E10000D1E10000CE
S32D0000C078D1E10000D1E10000D1E10000D1E10000D1E10000D1E10000D1E10000D1E10000D1E10000D1E10000A6
S32D0000C0A0D1E10000D1E10000D1E10000D1E10000D1E10000D1E10000D1E10000D1E10000D1E10000D1E100007E
S32D0000C0C8D1E10000D1E10000D1E10000D1E10000D1E10000D1E10000D1E10000D1E10000D1E10000D1E1000056
S32D0000C0F0D1E1000029680100D1E10000D1E10000D1E10000D1E10000D1E10000D1E10000D1E10000D1E100004E
S32D0000C118D1E10000D1E10000D1E10000D1E10000D1E10000D1E10000D1E10000D1E10000D1E10000D1E1000005
S32D0000C140D1E10000D1E10000D1E10000D1E10000B13E0100D1E10000D1E10000D1E10000D1E10000D1E100009F
S32D0000C168D1E10000D1E10000D1E10000D1E10000D1E10000D1E10000D1E10000D1E10000D1E10000D1E10000B5
S32D0000C190D1E10000D1E10000D1E10000ED3A010049390100193A010021E20000C13B0100D1E10000D1E1000008
S32D0000C1B8D1E10000D1E10000D1E10000D1E10000D1E10000D1E10000D1E10000D1E10000D1E10000D1E1000065
S32D0000C41081F0004102E000BF83F0004330B54FEA41044FEA430594EA050F08BF90EA020F1FBF54EA000C55EAC6
S32D0000C438020C7FEA645C7FEA655C00F0E2804FEA5454D4EB5555B8BF6D420CDD2C4480EA020281EA030382EA0F
S32D0000C460000083EA010180EA020281EA0303362D88BF30BD11F0004F4FEA01314FF4801C4CEA113102D0404263
S32D0000C48861EB410113F0004F4FEA03334CEA133302D0524263EB430394EA050F00F0A780A4F10104D5F1200E8A
S32D0000C4B00DDB02FA0EFC22FA05F2801841F1000103FA0EF2801843FA05F359410EE0A5F120050EF1200E012A2D
S32D0000C4D803FA0EFC28BF4CF0020C43FA05F3C01851EBE37101F0004507D54FF0000EDCF1000C7EEB00006EEB67
S32D0000C5000101B1F5801F1BD3B1F5001F0CD349085FEA30004FEA3C0C04F101044FEA445212F5800F80F09A8000
S32D0000C528BCF1004F08BF5FEA500C50F1000041EB045141EA050130BD5FEA4C0C404141EB010111F4801FA4F114
S32D0000C5500104E9D191F0000F04BF01460020B1FA81F308BF2033A3F10B03B3F120020CDA0C3208DD02F1140C87
S32D0000C578C2F10C0201FA0CF021FA02F10CE002F11402D8BFC2F1200C01FA02F120FA0CFCDCBF41EA0C019040B1
S32D0000C5A0E41AA2BF01EB0451294330BD6FEA04041F3C1CDA0C340EDC04F11404C4F1200220FA04F001FA02F3B6
S32D0000C5C840EA030021FA04F345EA030130BDC4F10C04C4F1200220FA02F001FA04F340EA0300294630BD21FAA8
S32D0000C5F004F0294630BD94F0000F83F4801306BF81F480110134013D4EE77FEA645C18BF7FEA655C29D094EA1C
S32D0000C618050F08BF90EA020F05D054EA000C04BF1946104630BD91EA030F1EBF0021002030BD5FEA545C05D1A3
S32D0000C6404000494128BF41F0004130BD14F580043CBF01F5801130BD01F0004545F0FE4141F470014FF0000031
S32D0000C66830BD7FEA645C1ABF194610467FEA655C1CBF0B46024650EA013406BF52EA033591EA030F41F40021D7
S32D0000C69030BD00BF90F0000F04BF0021704730B54FF4806404F132044FF000054FF0000150E700BF90F0000F66
S32D0000C6B804BF0021704730B54FF4806404F1320410F0004548BF40424FF000013EE700BF42004FEAE2014FEAF9
S32D0000C6E031014FEA02701FBF12F07F4393F07F4F81F06051704792F0000F14BF93F07F4F704730B54FF460741B
S32D0000C70801F0004521F0004120E700BF50EA010208BF704730B54FF000050AE050EA010208BF704730B511F046
S32D0000C730004502D5404261EB41014FF4806404F132045FEA915C3FF4DCAE4FF003025FEADC0C18BF03325FEAA0
S32D0000C758DC0C18BF033202EBDC02C2F1200300FA03FC20FA02F001FA03FE40EA0E0021FA02F11444C1E600BF19
S32D0000C78070B54FF0FF0C4CF4E06C1CEA11541DBF1CEA135594EA0C0F95EA0C0F00F0DEF82C4481EA030621EAF3
S32D0000C7A84C5123EA4C5350EA013518BF52EA033541F4801143F4801338D0A0FB02CE4FF00005E1FB02E506F05F
S32D0000C7D00042E0FB03E54FF00006E1FB03569CF0000F18BF4EF0010EA4F1FF04B6F5007F64F5407404D25FEA0F
S32D0000C7F84E0E6D4146EB060642EAC62141EA55514FEAC52040EA5E504FEACE2EB4F1FD0C88BFBCF5E06F1ED8D2
S32D0000C820BEF1004F08BF5FEA500E50F1000041EB045170BD06F0004646EA010140EA020081EA0301B4EB5C0487
S32D0000C848C2BFD4EB0C0541EA045170BD41F480114FF0000E013C00F3AB8014F1360FDEBF002001F0004170BDF0
S32D0000C870C4F10004203C35DA0C341BDC04F11404C4F1200500FA05F320FA04F001FA05F240EA020001F0004207
S32D0000C89821F0004110EBD37021FA04F642EB06015EEA430E08BF20EAD37070BDC4F10C04C4F1200500FA04F32F
S32D0000C8C020FA05F001FA04F240EA020001F0004110EBD37041F100015EEA430E08BF20EAD37070BDC4F12005C7
S32D0000C8E800FA05F24EEA020E20FA04F301FA05F243EA020321FA04F001F0004121FA04F220EA020000EBD37028
S32D0000C9105EEA430E08BF20EAD37070BD94F0000F0FD101F00046400041EB010111F4801F08BF013CF7D041EA6D
S32D0000C938060195F0000F18BF704703F00046520043EB030313F4801F08BF013DF7D043EA0603704794EA0C0FF1
S32D0000C9600CEA135518BF95EA0C0F0CD050EA410618BF52EA4306D1D181EA030101F000414FF0000070BD50EA38
S32D0000C988410606BF1046194652EA430619D094EA0C0F02D150EA013613D195EA0C0F05D152EA03361CBF10467B
S32D0000C9B019460AD181EA030101F0004141F0FE4141F470014FF0000070BD41F0FE4141F4780170BD70B54FF04D
S32D0000C9D8FF0C4CF4E06C1CEA11541DBF1CEA135594EA0C0F95EA0C0F00F0A7F8A4EB050481EA030E52EA03359B
S32D0000CA004FEA013100F088804FEA03334FF0805545EA131343EA12634FEA022245EA111545EA10654FEA002676
S32D0000CA280EF000419D4208BF964244F1FD0404F5407402D25B084FEA3202B61A65EB03055B084FEA32024FF461
S32D0000CA5080104FF4002CB6EB020E75EB030E22BFB61A754640EA0C005B084FEA3202B6EB020E75EB030E22BF22
S32D0000CA78B61A754640EA5C005B084FEA3202B6EB020E75EB030E22BFB61A754640EA9C005B084FEA3202B6EBEA
S32D0000CAA0020E75EB030E22BFB61A754640EADC0055EA060E18D04FEA051545EA16754FEA06164FEAC30343EAAC
S32D0000CAC852734FEAC2025FEA1C1CC0D111F4801F0BD141EA00014FF000004FF0004CB6E711F4801F04BF0143AE
S32D0000CAF00020B4F1FD0C88BFBCF5E06F3FF6AFAEB5EB030C04BFB6EB020C5FEA500C50F1000041EB045170BDBC
S32D0000CB180EF0004E4EEA113114EB5C04C2BFD4EB0C0541EA045170BD41F480114FF0000E013C90E645EA060EC3
S32D0000CB408DE60CEA135594EA0C0F08BF95EA0C0F3FF43BAF94EA0C0F0AD150EA01347FF434AF95EA0C0F7FF499
S32D0000CB6825AF104619462CE795EA0C0F06D152EA03353FF4FDAE1046194622E750EA410618BF52EA43067FF432
S32D0000CB90C5AE50EA41047FF40DAF52EA43057FF4EBAE12E74FF0FF3C06E000BF4FF0010C02E000BF4FF0010C75
S32D0000CBB84DF804CD4FEA410C7FEA6C5C4FEA430C18BF7FEA6C5C1BD001B050EA410C0CBF52EA430C91EA030FEC
S32D0000CBE002BF90EA020F0020704710F1000F91EA030F58BF994208BF90422CBFD8176FEAE37040F0010070476E
S32D0000CC084FEA410C7FEA6C5C02D150EA013C07D14FEA430C7FEA6C5CD6D152EA033CD3D05DF8040B704700BFCD
S32D0000CC308446104662468C461946634600E000BF01B5FFF7B7FF002848BF10F1000F01BD4DF808EDFFF7F4FF13
S32D0000CC580CBF012000205DF808FB00BF4DF808EDFFF7EAFF34BF012000205DF808FB00BF4DF808EDFFF7E0FF18
S32D0000CC8094BF012000205DF808FB00BF4DF808EDFFF7CEFF94BF012000205DF808FB00BF4DF808EDFFF7C4FF40
S32D0000CCA834BF012000205DF808FB00BF4FEA410212F5001215D211D56FF47873B3EB625212D94FEAC12343F0D6
S32D0000CCD0004343EA505311F0004F23FA02F018BF404270474FF00000704750EA013005D111F0004008BF6FF016
S32D0000CCF8004070474FF00000704700BF4A0011D212F5001211D20DD56FF47873B3EB62520ED44FEAC12343F085
S32D0000CD20004343EA505323FA02F070474FF00000704750EA013002D14FF0FF3070474FF0000070474FEA410241
S32D0000CD48B2F1E04324BFB3F5001CDCF1FE5C0DD901F0004C4FEAC0024CEA5070B2F1004F40EB830008BF20F09E
S32D0000CD700100704711F0804F21D113F13872BCBF01F00040704741F480114FEA5252C2F11802C2F1200C10FAB1
S32D0000CD980CF320FA02F018BF40F001004FEAC1234FEAD32303FA0CFC40EA0C0023FA02F34FEA4303CCE77FEA26
S32D0000CDC0625307D150EA01331EBF4FF0FE4040F44000704701F0004040F0FE4040F40000704700BF80F00040CC
S32D0000CDE802E000BF81F0004142001FBF5FEA410392EA030F7FEA226C7FEA236C6AD04FEA1262D2EB1363C1BF06
S32D0000CE10D218414048404140B8BF5B42192B88BF704710F0004F40F4000020F07F4018BF404211F0004F41F4FA
S32D0000CE38000121F07F4118BF494292EA030F3FD0A2F1010241FA03FC10EB0C00C3F1200301FA03F100F000432B
S32D0000CE6002D5494260EB4000B0F5000F13D3B0F1807F06D340084FEA310102F10102FE2A51D2B1F1004F40EB94
S32D0000CE88C25008BF20F0010040EA03007047490040EB000010F4000FA2F10102EDD1B0FA80FCACF1080CB2EB5F
S32D0000CEB00C0200FA0CF0AABF00EBC25052421843BCBFD0401843704792F0000F81F4000106BF80F400000132EB
S32D0000CED8013BB5E74FEA41037FEA226C18BF7FEA236C21D092EA030F04D092F0000F08BF0846704790EA010FD7
S32D0000CF001CBF0020704712F07F4F04D1400028BF40F00040704712F100723CBF00F50000704700F0004343F0DC
S32D0000CF28FE4040F4000070477FEA226216BF08467FEA23630146420206BF5FEA412390EA010F40F480007047C1
S32D0000CF504FF0000304E000BF10F0004348BF40425FEA000C08BF704743F0964301464FF000001CE050EA010264
S32D0000CF7808BF70474FF000030AE000BF50EA010208BF704711F0004302D5404261EB41015FEA010C02BF84465B
S32D0000CFA00146002043F0B64308BFA3F18053A3F50003BCFA8CF2083AA3EBC25310DB01FA02FC634400FA02FC6B
S32D0000CFC8C2F12002BCF1004F20FA02F243EB020008BF20F00100704702F1200201FA02FCC2F1200250EA4C0034
S32D0000CFF021FA02F243EB020008BF20EADC7070474FF0FF0C1CEAD0521EBF1CEAD15392EA0C0F93EA0C0F6FD019
S32D0000D0181A4480EA010C400218BF5FEA41211ED04FF0006343EA501043EA5111A0FB01310CF00040B1F5000FE7
S32D0000D0403EBF490041EAD3715B0040EA010062F17F02FD2A1DD8B3F1004F40EBC25008BF20F00100704790F058
S32D0000D068000F0CF0004C08BF49024CEA502040EA51207F3AC2BFD2F1FF0340EAC250704740F400004FF0000388
S32D0000D090013A5DDC12F1190FDCBF00F000407047C2F10002410021FA02F1C2F1200200FA02FC5FEA310040F1D5
S32D0000D0B8000053EA4C0308BF20EADC70704792F0000F00F0004C02BF400010F4000F013AF9D040EA0C0093F04C
S32D0000D0E0000F01F0004C02BF490011F4000F013BF9D041EA0C018FE70CEAD15392EA0C0F18BF93EA0C0F0AD00B
S32D0000D10830F0004C18BF31F0004CD8D180EA010000F00040704790F0000F17BF90F0004F084691F0000F91F0BB
S32D0000D130004F14D092EA0C0F01D142020FD193EA0C0F03D14B0218BF084608D180EA010000F0004040F0FE4051
S32D0000D15840F40000704740F0FE4040F4400070474FF0FF0C1CEAD0521EBF1CEAD15392EA0C0F93EA0C0F69D044
S32D0000D180A2EB030280EA010C49024FEA402037D04FF0805343EA111143EA10130CF000408B4238BF5B0042F14E
S32D0000D1A87D024FF4000C8B4224BF5B1A40EA0C00B3EB510F24BFA3EB510340EA5C00B3EB910F24BFA3EB9103A4
S32D0000D1D040EA9C00B3EBD10F24BFA3EBD10340EADC001B0118BF5FEA1C1CE0D1FD2A3FF650AF8B4240EBC25018
S32D0000D1F808BF20F0010070470CF0004C4CEA50207F32C2BFD2F1FF0340EAC250704740F400004FF00003013AF1
S32D0000D22037E792F0000F00F0004C02BF400010F4000F013AF9D040EA0C0093F0000F01F0004C02BF490011F4C9
S32D0000D248000F013BF9D041EA0C0195E70CEAD15392EA0C0F08D142027FF47DAF93EA0C0F7FF470AF084676E7AE
S32D0000D27093EA0C0F04D14B023FF44CAF08466EE730F0004C18BF31F0004CCAD130F000427FF45CAF31F0004376
S32D0000D2987FF43CAF5FE700BF4FF0FF3C06E000BF4FF0010C02E000BF4FF0010C4DF804CD4FEA40024FEA41039F
S32D0000D2C07FEA226C18BF7FEA236C11D001B052EA530C18BF90EA010F58BFB2EB030088BFC81738BF6FEAE1706E
S32D0000D2E818BF40F0010070477FEA226C02D15FEA402C05D17FEA236CE4D15FEA412CE1D05DF8040B704700BF16
S32D0000D310844608466146FFE70FB5FFF7C9FF002848BF10F1000F0FBD4DF808EDFFF7F4FF0CBF012000205DF839
S32D0000D33808FB00BF4DF808EDFFF7EAFF34BF012000205DF808FB00BF4DF808EDFFF7E0FF94BF012000205DF8A9
S32D0000D36008FB00BF4DF808EDFFF7D2FF94BF012000205DF808FB00BF4DF808EDFFF7C8FF34BF012000205DF8B1
S32D0000D38808FB00BF4FEA4002B2F1FE4F0FD34FF09E03B3EB12620DD94FEA002343F0004310F0004F23FA02F060
S32D0000D3B018BF404270474FF00000704712F1610F01D1420205D110F0004008BF6FF0004070474FF00000704797
S32D0000D3D880B584B000AFF86039723A713B70FB683A7A1A70FB683A795A70FB683A789A70FB683A7EDA70FB684E
S32D0000D4003A7F1A71FB6897F820205A71FB6897F824209A71FB6897F82820DA71FB6897F82C201A7241F2D440E6
S32D0000D428C1F6FF7009F002FC41F2D440C1F6FF7048F23011C0F2010109F0E4FCFB68184607F11007BD4680BD34
S32D0000D4502DE9F04F9DB00AAF78610B46FB7448F22033C0F2010307F11C041D460FCD0FC40FCD0FC495E807001A
S32D0000D47803C4227005F008FF04460D467B69DB68FB607B691B69BB607B691B7D7B607B695B7D9B467B699B7D9F
S32D0000D4A09A467B69DB7D99467B691B7E98467B695B7E1E467B69DB691846FFF70DF902460B4607F11C01F86857
S32D0000D4C80090B868019078680290CDF80CB0CDF810A0CDF81490CDF818800796CDE9082341F2D440C1F6FF70DC
S32D0000D4F022462B4609F08AFCFB7C002B00F0BF8041F24C40C1F6FF7048F23421C0F2010107F04AFE41F24C40BF
S32D0000D518C1F6FF7048F26421C0F2010107F040FE7B69DB6841F24C40C1F6FF70194607F065FE41F24C40C1F6DC
S32D0000D540FF7048F27021C0F2010107F02DFE7B691B6941F24C40C1F6FF70194607F052FE41F24C40C1F6FF70D5
S32D0000D56848F28021C0F2010107F01AFE7B691B7D41F24C40C1F6FF70194607F0C1FE41F24C40C1F6FF7048F262
S32D0000D5909021C0F2010107F007FE7B695B7D41F24C40C1F6FF70194607F0AEFE41F24C40C1F6FF7048F2A02189
S32D0000D5B8C0F2010107F0F4FD7B699B7D41F24C40C1F6FF70194607F09BFE41F24C40C1F6FF7048F2B021C0F237
S32D0000D5E0010107F0E1FD7B69DB7D41F24C40C1F6FF70194607F088FE41F24C40C1F6FF7048F2C021C0F2010195
S32D0000D60807F0CEFD7B691B7E41F24C40C1F6FF70194607F075FE41F24C40C1F6FF7048F2D021C0F2010107F04C
S32D0000D630BBFD7B695B7E41F24C40C1F6FF70194607F062FE41F24C40C1F6FF7048F2E021C0F2010107F0A8FD4C
S32D0000D6587B69DB6941F24C40C1F6FF70194607F0E7FD41F24C40C1F6FF7048F2F021C0F2010107F095FD07F1F8
S32D0000D6804C07BD46BDE8F08F2DE9F04FADF5777D20AF07F16404206007F16000016007F15C010A601A4607F198
S32D0000D6A85B031A7007F164031B68DA6807F160031B689A4214BF0023012387F8573307F164031B681A6907F10E
S32D0000D6D05C031B689A4214BF0023012387F8563307F164031B681B7D07F15B0212789A4214BF0023012387F87E
S32D0000D6F8553307F164031B685B7D97F880239A4214BF0023012387F8543307F164031B689B7D97F884239A4288
S32D0000D72014BF0023012387F8533307F164031B68DB7D97F888239A4214BF0023012387F8523307F164031B686C
S32D0000D7481B7E97F88C239A4214BF0023012387F8513307F164031B685B7E97F890239A4214BF0023012387F871
S32D0000D770503307F164031B68DB691846D7F89413FFF7FAFD0346002B0ED007F164031B68DB691846D7F89813D1
S32D0000D798FFF7D0FD0346002B02D04FF0010301E04FF0000387F84F3397F85733002B42D097F85633002B3ED04C
S32D0000D7C097F85533002B3AD097F85433002B36D097F85333002B32D097F85233002B2ED097F85133002B2AD0F1
S32D0000D7E897F85033002B26D097F84F33002B22D041F2D440C1F6FF7009F018FA05F044FD02460B4641F2D44024
S32D0000D810C1F6FF7048F24C31C0F2010109F0F6FA41F2D440C1F6FF7009F0D4FA41F24840C1F6FF7006F0EAFC7F
S32D0000D8384FF0010330E107F1680248F28433C0F2010311461A464FF43973084611461A4609F0F8FB05F018FDC4
S32D0000D860C7E9120107F164031B68DB683B6597F85733002B04D048F27C38C0F2010803E048F28038C0F20108C1
S32D0000D88807F164031B681B697B6497F85633002B04D048F27C39C0F2010903E048F28039C0F2010907F15B0383
S32D0000D8B01B783B6407F164031B681B7DFB6397F85533002B04D048F27C3BC0F2010B03E048F2803BC0F2010BE5
S32D0000D8D897F88043BC6307F164031B685B7D7B6397F85433002B07D048F27C357D657C6DC0F201047C6506E0CD
S32D0000D90048F280357D657C6DC0F201047C6597F884533D6307F164031B689B7DFB6297F85333002B04D048F2FC
S32D0000D9287C3AC0F2010A03E048F2803AC0F2010A97F88843BC6207F164031B68DB7D7B6297F85233002B04D028
S32D0000D95048F27C36C0F2010603E048F28036C0F2010697F88C533D6207F164031B681B7EFB6197F85133002B56
S32D0000D97804D048F27C35C0F2010503E048F28035C0F2010597F89043BC6107F164031B685B7E7B6197F8503358
S32D0000D9A0002B04D048F27C34C0F2010403E048F28034C0F20104D7F89403FEF78DFEC7E90201D7F89803FEF739
S32D0000D9C887FEC7E9000107F164031B68DB691846FEF77EFE97F84F33002B04D048F27C32C0F2010203E048F23C
S32D0000D9F08032C0F2010207F1680E07F160031B6800933B6D0193CDF8088007F15C031B6803937B6C0493CDF887
S32D0000DA1814903B6C0693FB6B0793CDF820B0BB6B09937B6B0A937B6D0B933B6B0C93FB6A0D93CDF838A0BB6A90
S32D0000DA400F937B6A109311963B6A1293FB6913931495BD6915957D6916951794D7E90245CDE91845D7E90045BF
S32D0000DA68CDE91A45CDE91C011E9241F2D440C1F6FF707146D7E9122309F0C4F941F24840C1F6FF704FF0000207
S32D0000DA904FF00003C3F6F07306F0C8FB4FF00003184607F55777BD46BDE8F08F90B595B008AF41F24C40C1F609
S32D0000DAB8FF704FF0000107F07FF941F24C40C1F6FF706FF07F4107F09FF941F24C40C1F6FF7048F26861C0F2F5
S32D0000DAE0010107F02DFC41F24C40C1F6FF7048F28461C0F2010107F023FC07F1040441F24811C1F6FF7141F242
S32D0000DB084C12C1F6FF7241F23813C1F6FF7341F23C10C1F6FF7000788DF8000041F24010C1F6FF7000788DF87A
S32D0000DB30040041F24410C1F6FF7000788DF8080041F25410C1F6FF7000788DF80C0041F25810C1F6FF70007812
S32D0000DB588DF8100041F25010C1F6FF7000788DF814002046097812781B78FFF731FC41F24C40C1F6FF7048F2FA
S32D0000DB80A461C0F2010107F0DBFB07F104034FF0010200924FF0010201924FF0010202924FF0010203924FF05D
S32D0000DBA8010204924FF00002059243F23332C4F25302069218464FF000014FF000024FF00103FFF75DFD0346E6
S32D0000DBD087F82F3097F82F30002B0ED041F24C40C1F6FF7048F2C461C0F2010107F0A8FB4FF4FA6005F006FB2D
S32D0000DBF81FE041F24C40C1F6FF7048F2D861C0F2010107F099FB4FF4FA6005F0F7FA10E007F1040318464FF05A
S32D0000DC200101FFF715FC4FF0640005F0EBFA41F24C40C1F6FF7007F0A3F807F1280207F1240341F24C40C1F622
S32D0000DC48FF7011461A4607F073F9034683F00103DBB2002BDCD141F24C40C1F6FF7048F2EC61C0F2010107F0E9
S32D0000DC7067FB07F104034FF0010200924FF0010201924FF0010202924FF0010203924FF0010204924FF00002B6
S32D0000DC98059243F23332C4F25302069218464FF000014FF000024FF00103FFF7E9FC034687F82F3097F82F3078
S32D0000DCC0002B0ED041F24C40C1F6FF7048F2C461C0F2010107F034FB4FF4FA6005F092FA0DE041F24C40C1F68E
S32D0000DCE8FF7048F2D861C0F2010107F025FB4FF4FA6005F083FA41F24C40C1F6FF7048F20871C0F2010107F00F
S32D0000DD1017FB41F2D440C1F6FF7009F05BF841F24C40C1F6FF7048F21871C0F2010107F007FB4FF00003184625
S32D0000DD3807F13407BD4690BD80B582B000AF786039607B68012B6CD13A684FF6FF739A4267D141F21C10C1F6E4
S32D0000DD60FF704FF000014FF00002C4F2401200F08BFA41F22410C1F6FF704FF001014FF00002C4F2401200F021
S32D0000DD887FFA41F22C10C1F6FF704FF0000106F0EFFA41F23810C1F6FF704FF0080105F0ABFA41F23C10C1F687
S32D0000DDB0FF704FF0090105F0A3FA41F24010C1F6FF704FF00A0105F09BFA41F24410C1F6FF704FF00B0105F091
S32D0000DDD893FA41F24810C1F6FF704FF0020105F0ABFB41F24C10C1F6FF704FF0030105F0A3FB41F25010C1F62D
S32D0000DE00FF704FF0000105F041FF41F25410C1F6FF704FF00C0105F073FA41F25810C1F6FF704FF00D0105F0A2
S32D0000DE286BFA07F10807BD4680BD00BF80B500AF4FF001004FF6FF71FFF77EFF80BD00BF80B500AF41F650129C
S32D0000DE50C1F6FF7241F21C13C1F6FF73D31A41F21C10C1F6FF704FF000011A4609F0F7F880BD00BF0AF048F9C0
S32D0000DE7800F0B0F9FFF7E4FF0AF01EF90AF0BAF80AF050F900F00CF84FF0000041F25C11C1F6FF71FFF706FE16
S32D0000DEA00346184609F0B6F880B500AF4FF4E043C4F204034FF4E042C4F2040202F5815202F11802126842F457
S32D0000DEC8785203F5815303F118031A6000F02EF900F094F841F29833C1F6FF734FF058021A6041F29833C1F68B
S32D0000DEF0FF731B684FF47A7202FB03F241F29433C1F6FF731A6041F29433C1F6FF731B681A464FF4E043C4F22F
S32D0000DF18040303F5825303F104031B6803F070634FEA136303F10103B2FBF3F31A4641F29C33C1F6FF731A6084
S32D0000DF404FF4E043C4F204034FF4E042C4F2040202F5815202F11C02126842F0225203F5815303F11C031A601B
S32D0000DF684FF4E043C4F204034FF4E042C4F2040202F5815202F11002126842F0006203F5815303F110031A601D
S32D0000DF904FF45043C4F203034FF480721A614FF0640005F001F84FF45043C4F203034FF45042C4F203025269B3
S32D0000DFB822F010025A614FF45043C4F203034FF000021A604FF45043C4F203034FF010025A6105F0D9FE05F0B0
S32D0000DFE081FF41F29030C1F6FF7005F061F841F24C40C1F6FF7006F0FBFC41F2883005F001F980BD80B400AF60
S32D0000E0084FF48043C4F206034FF000025A704FF48043C4F206034FF098021A704FF48043C4F206039B79DBB28C
S32D0000E03003F01003002B0CBF00230123DBB2002BF0D14FF48043C4F206039B79DBB203F00C034FEA9303022BA2
S32D0000E0580CBF00230123DBB2002BEED14FF48043C4F206034FF018021A714FF48043C4F206034FF000025A7197
S32D0000E0804FF4E043C4F2040303F5825303F104034FF00002C0F213121A604FF48043C4F206034FF054025A71D0
S32D0000E0A800BF4FF48043C4F206039B79DBB203F02003002B14BF00230123DBB2002BF0D100BF4FF48043C4F2D6
S32D0000E0D006039B79DBB203F04003002B14BF00230123DBB2002BF0D14FF48043C4F206034FF48042C4F20602FC
S32D0000E0F81278D2B202F03F02D2B21A704FF48043C4F206039B79DBB203F00C034FEA9303032B0CBF0023012334
S32D0000E120DBB2002BEED14FF000031846BD4680BC704700BF80B400AF4FF44043C4F204034FF480725A634FF26C
S32D0000E148C003C4F20F034FF2C002C4F20F02526942F400525A614FF2C003C4F20F034FF2C002C4F20F02126846
S32D0000E17042F400521A604FF44043C4F2040340F20312C0F20A021A634FF46143CEF200034FF46142CEF2000228
S32D0000E198D2F8882142F08062C3F888214FF46143CEF200034FF46142CEF20002926842F080629A60BD4680BCD5
S32D0000E1C0704700BF80B483B000AF7860FEE700BF80B400AF00BEBD4680BC704780B400AF4FF0E0224CF200032D
S32D0000E1E8C0F20003C2F8083D4FF40053C4F205034CF22052DA814FF40053C4F205034DF62812DA814FF4005334
S32D0000E210C4F205034FF0D2021A80BD4680BC704780B500AF4FF44043C4F20403D3F8A03003F48053002B0CBFBD
S32D0000E23800230123DBB2002B1FD04FF44043C4F204034FF44042C4F20402D2F8A02022F48052C3F8A02041F2A6
S32D0000E260D440C1F6FF7008F0B5FD4FF2C003C4F20F034FF2C002C4F20F02126822F400521A6080BD000000007D
S32D0000E28880B584B000AFF8600B467A60FB72FB68FA7A1A71FB684FF000025A7178684FF00001C4F24011FFF772
S32D0000E2B063F80346002B05D04FF00003C4F240137B600AE078684FF07E51FFF741F80346002B02D04FF07E5319
S32D0000E2D87B607868FEF7FCF902460B461046194609A3D3E90023FEF747FA02460B4610461946FEF723FD0246B9
S32D0000E300FB681A60FB68184607F11007BD4680BDABAAAAAAAAAA204080B485B000AF02460B46FA71BB71BB7929
S32D0000E328002B07D141F26013C1F6FF734FF000021A7006E041F26013C1F6FF734FF001021A704FF03803FB73C1
S32D0000E35041F26013C1F6FF731A78FB7B1343FB734FF4C043C4F206034FF4C042C4F206029278D2B242F010022A
S32D0000E378D2B29A704FF4C043C4F206034FF4C042C4F206029278D2B242F02002D2B29A704FF4C043C4F206036C
S32D0000E3A0FA7B1A7107F11407BD4680BC704700BF80B483B000AF4FF001037B6004E000BF7B6803F101037B60FA
S32D0000E3C87B68312BCCBF00230123DBB2002BF2D107F10C07BD4680BC704700BF80B582B000AF02460B46FA71C1
S32D0000E3F0BB7141F26113C1F6FF731B7818464FF00001FFF789FF4FF4C043C4F20603DB78DBB203F00203002B4C
S32D0000E41814BF00230123DBB2002BF0D14FF4C043C4F206034FF4C042C4F20602D278D2B242F00202D2B2DA7069
S32D0000E4404FF4C043C4F20603FA791A714FF4C043C4F20603DB78DBB203F00203002B14BF00230123DBB2002BD1
S32D0000E468F0D14FF4C043C4F206034FF4C042C4F20602D278D2B242F00202D2B2DA704FF4C043C4F20603BA79B3
S32D0000E4901A714FF4C043C4F20603DB78DBB203F00203002B14BF00230123DBB2002BF0D14FF4C043C4F2060333
S32D0000E4B84FF4C042C4F20602D278D2B242F00202D2B2DA704FF4C043C4F206034FF4C042C4F206029278D2B2CB
S32D0000E4E022F02002D2B29A704FF4C043C4F206034FF4C042C4F206029278D2B222F01002D2B29A70FFF754FFBB
S32D0000E50807F10807BD4680BD80B582B000AF0346FB71FB79184600F06BF807F10807BD4680BD00BF80B582B041
S32D0000E53000AF02460B46FA71BB7100F039F8FB794FEA4303DBB21846FFF7E2FFBB791846FFF7DEFF00F03EF87D
S32D0000E55807F10807BD4680BD80B500AF4FF0FF0000F046F80346184680BD00BF80B584B000AF0346FB7100F09E
S32D0000E58017F8FB794FEA4303DBB243F00103DBB2DBB21846FFF7BCFFFFF7E2FF0346FB7300F018F8FB7B18461C
S32D0000E5A807F11007BD4680BD80B400AF4FF24003C4F20F034FF24002C4F20F02926842F480129A60BD4680BC82
S32D0000E5D0704700BF80B400AF4FF24003C4F20F034FF24002C4F20F02526842F480125A60BD4680BC704700BF3D
S32D0000E5F880B485B000AF0346FB714FF00003BB7303E0FB7B03F10103FB734FF44043C4F20A03DB6A4FF00003E9
S32D0000E620002BF2D14FF44043C4F20A034FF44042C4F20A02D26A42F00042DA624FF44043C4F20A03FA795A6329
S32D0000E64800BF4FF44043C4F20A03DB6A03F40033002B14BF00230123DBB2002BF1D14FF44043C4F20A039B6B9F
S32D0000E670BB73BB7B184607F11407BD4680BC704780B582B000AF4FF4E043C4F204034FF4E042C4F2040202F560
S32D0000E698815202F11002126842F4805203F5815303F110031A604FF42043C4F204034FF480721A654FF2400312
S32D0000E6C0C4F20F034FF24002C4F20F02526942F480125A61FFF77EFF4FF42043C4F204034FF400725A654FF44F
S32D0000E6E82043C4F204034FF400729A654FF42043C4F204034FF40072DA654FF44043C4F20A034FF44062C8F2B1
S32D0000E71000021A604FF44043C4F20A034FF00502C3F60062DA604FF000037B6007E04FF0FF00FFF7EDFE7B6835
S32D0000E73803F101037B607B68092BCCBF00230123DBB2002BEFD104A1D1E9000104F070FD07F10807BD4680BD77
S32D0000E7609A9999999999B93F90B486B000AFF860B9607A60FA684FF42043C4F206039A4214D14FF4E043C4F2E4
S32D0000E78804034FF4E042C4F2040202F5815202F11402126842F4806203F5815303F114031A6083E0FA684FF47D
S32D0000E7B03043C4F206039A4214D14FF4E043C4F204034FF4E042C4F2040202F5815202F11402126842F400621F
S32D0000E7D803F5815303F114031A6067E0FA684FF44043C4F206039A4214D14FF4E043C4F204034FF4E042C4F295
S32D0000E800040202F5815202F11402126842F4805203F5815303F114031A604BE0FA684FF45043C4F206039A4240
S32D0000E82814D14FF4E043C4F204034FF4E042C4F2040202F5815202F11402126842F4005203F5815303F11403ED
S32D0000E8501A602FE0FA684FF42043C4F20E039A4214D14FF4E043C4F204034FF4E042C4F2040202F5815202F180
S32D0000E8780802126842F4806203F5815303F108031A6013E04FF4E043C4F204034FF4E042C4F2040202F5815290
S32D0000E8A002F10802126842F4006203F5815303F108031A60FB68DB78DBB223F00C03DAB2FB68DA70FB684FF0B6
S32D0000E8C800029A70BB684FF47A7202FB03F27B684FEA031392FBF3F39CB2FB681B78DBB223F01F03FB7523464E
S32D0000E8F003F4F8534FEA2323DBB203F01F03DAB2FB7D1343DAB2FB681A70E2B2FB685A70BB684FF4FA4202FB64
S32D0000E91803F27B684FEA031392FBF3F39AB2234619464FEAC121CB1A4FEA43139BB2D3189CB2FB689B7ADBB209
S32D0000E94023F01F03FB75E3B203F01F03DAB2FB7D1343DAB2FB689A72FB68DB78DBB243F00C03DAB2FB68DA7047
S32D0000E96807F11807BD4690BC704700BF80B483B000AF786000BF7B681B79DBB203F02003002B14BF0023012399
S32D0000E990DBB2002BF3D17B68DB79DBB2184607F10C07BD4680BC704780B483B000AF78600B46FB7000BF7B686E
S32D0000E9B81B79DBB2DBB26FEA0303DBB24FEAD313DBB2002BF3D17B68FA78DA7107F10C07BD4680BC704700BF9C
S32D0000E9E080B487B000AFF860B9607A60FB687B61BB683B610BE03B691A787B691A707B6903F101037B613B69BB
S32D0000EA0803F101033B617B68002B0CBF00230123DBB27A6802F1FF327A60002BE7D107F11C07BD4680BC7047CB
S32D0000EA3080B487B000AFF860B9607A60FB687B6107E0BB68DAB27B691A707B6903F101037B617B68002B0CBF7F
S32D0000EA5800230123DBB27A6802F1FF327A60002BEBD107F11C07BD4680BC704780B489B000AFF860B9607A607D
S32D0000EA80FB68FB61BB68BB614FF000037B617B68002B0CBF00230123DBB27A6802F1FF327A60002B19D0FB6947
S32D0000EAA81B781A46BB691B78D31A7B617B69002B14BF00230123DBB2FA6902F10102FA61BA6902F10102BA612F
S32D0000EAD0002B02D04FF0010301E04FF00003002BD5D17B69184607F12407BD4680BC704780B483B000AF78609B
S32D0000EAF8396003E07B6803F101037B607B681B78002B08D07B681B781A463B689A4202D04FF0010301E04FF0BB
S32D0000EB200003002BEAD17B681B78184607F10C07BD4680BC704700BF80B584B000AF786039607B681B6BFB60FD
S32D0000EB48FA683B689A4264D07B681B79002B43D07B685A787B6803F1340310461946FA684FF0010304F082F84A
S32D0000EB700346002B0CBF00230123DBB2002B02D04FF001034BE07B684FF000021A717B685A6A7B681B6AD21851
S32D0000EB98FB689A4220D97B68DB78FB7214E07B681B6AFA68D318FB607B685A787B6803F1340310461946FA6896
S32D0000EBC04FF0010304F056F8FB7A03F1FF33FB72FB7A012B94BF00230123DBB2002BE2D13B68002B19D07B685A
S32D0000EBE85A787B6803F13403104619463A684FF0010303F029FF0346002B0CBF00230123DBB2002B02D04FF01B
S32D0000EC10010304E07B683A681A634FF00003184607F11007BD4680BD80B584B000AF786078684FF00001FFF7F7
S32D0000EC387FFF0346FB73FB7B002B40F0AE807B681B78032B40F095807B685B79002B00F090807B684FF000028B
S32D0000EC601A637B6803F1340318464FF000014FF40072FFF7DDFE7B684FF0550283F832227B684FF0AA0283F846
S32D0000EC8833227B684FF0520283F834207B684FF0520283F835207B684FF0610283F836207B684FF0410283F848
S32D0000ECB037207B684FF0720283F818227B684FF0720283F819227B684FF0410283F81A227B684FF0610283F82C
S32D0000ECD81B227B681B69DAB27B6883F81C227B681B699BB24FEA2323DAB27B6883F81D227B681B694FEA1343F0
S32D0000ED00DAB27B6883F81E227B681B694FEA1363DAB27B6883F81F227B68DB68DAB27B6883F820227B68DB6802
S32D0000ED289BB24FEA2323DAB27B6883F821227B68DB684FEA1343DAB27B6883F822227B68DB684FEA1363DAB280
S32D0000ED507B6883F823227B6859787B6803F134027B685B69084611461A464FF0010303F081FF7B684FF00002AB
S32D0000ED785A717B685B7818464FF000014FF0000204F05EF80346002B0CBF00230123DBB2002B02D04FF0010370
S32D0000EDA0FB73FB7B184607F11007BD4680BD00BF80B483B000AF786039603B68A3F102033B607B68DB69A3F1DC
S32D0000EDC802023B689A4202D84FF0000307E07B689B783A6802FB03F27B68DB6AD318184607F10C07BD4680BC52
S32D0000EDF0704700BF80B586B000AF786039603B68012B04D97B68DA693B689A4202D84FF00103D2E07B681B785E
S32D0000EE18022B5ED0032B00F08980012B40F0C7803B687B617B694FEA53037A69D3187B617B685A6A7B694FEA47
S32D0000EE405323D31878681946FFF776FE0346002B0CBF00230123DBB2002B40F0A5807B694FEAC3534FEAD35375
S32D0000EE687A68D31893F834303B617B6903F101037B617B685A6A7B694FEA5323D31878681946FFF755FE034676
S32D0000EE90002B0CBF00230123DBB2002B40F086807B694FEAC3534FEAD3537A68D31893F834304FEA03233A69D9
S32D0000EEB813433B613B6803F00103002B03D03B694FEA131304E03B694FEA03534FEA13536FE07B685A6A3B6850
S32D0000EEE04FEA1323D31878681946FFF725FE0346002B0CBF00230123DBB2002B58D13B684FEA43034FEAC3537A
S32D0000EF084FEAD35303F130037A68D31803F10403FB60FB6803F101031B784FEA03239AB2FB681B7813439BB200
S32D0000EF309BB242E07B685A6A3B684FEAD313D31878681946FFF7F8FD0346002B0CBF00230123DBB2002B2DD18A
S32D0000EF583B684FEA83034FEAC3534FEAD35303F130037A68D31803F10403FB60FB6803F103031B784FEA0362A3
S32D0000EF80FB6803F102031B784FEA03431A43FB6803F101031B784FEA03231A43FB681B78134323F0704308E0F4
S32D0000EFA800BF04E000BF02E000BF00E000BF4FF0FF33184607F11807BD4680BD80B588B000AFF860B9607A600C
S32D0000EFD0BB68012B04D9FB68DA69BB689A4203D84FF00203FB7718E1FB681B78022B00F08380032B00F0AB8059
S32D0000EFF8012B40F0FF80BB68BB61BB694FEA5303BA69D318BB61FB685A6ABB694FEA5323D318F8681946FFF75A
S32D0000F0208BFD0346FB77FB7F002B40F0EB80BB694FEAC3534FEAD35303F13003FA68D31803F104037B61BB68FF
S32D0000F04803F00103002B0ED07B691B78DBB203F00F03DAB27B68DBB24FEA0313DBB21343DBB2DBB201E07B6885
S32D0000F070DBB27A691370BB6903F10103BB61FB684FF001021A71FB685A6ABB694FEA5323D318F8681946FFF77D
S32D0000F0984FFD0346FB77FB7F002B40F0B180BB694FEAC3534FEAD35303F13003FA68D31803F104037B61BB68FD
S32D0000F0C003F00103002B04D07B684FEA1313DBB20FE07B691B78DBB223F00F03DAB27B684FEA1323DBB203F0E7
S32D0000F0E80F03DBB21343DBB2DBB27A6913708CE0FB685A6ABB684FEA1323D318F8681946FFF716FD0346FB77F2
S32D0000F110FB7F002B7AD1BB684FEA43034FEAC3534FEAD35303F13003FA68D31803F104037B617B68DAB27B69F3
S32D0000F1381A707B6903F101037A6892B24FEA2222D2B21A7061E0FB685A6ABB684FEAD313D318F8681946FFF748
S32D0000F160EBFC0346FB77FB7F002B51D1BB684FEA83034FEAC3534FEAD35303F13003FA68D31803F104037B613D
S32D0000F1887B6903F103031B784FEA03627B6903F102031B784FEA03431A437B6903F101031B784FEA03231A43D3
S32D0000F1B07B691B78134303F070437A6813437B607B68DAB27B691A707B6903F101037A6892B24FEA2222D2B2CB
S32D0000F1D81A707B6903F102037A684FEA1242D2B21A707B6903F103037A684FEA1262D2B21A700AE04FF002037C
S32D0000F200FB7706E000BF04E000BF02E000BF00E000BFFB684FF001021A71FB7F184607F12007BD4680BD00BFC0
S32D0000F22880B584B000AF786039603B68012B04D97B68DA693B689A4203D84FF00203FB7344E04FF00003FB737D
S32D0000F25032E078683968FFF7CDFDB860BB68002B35D0BB68012B03D14FF00203FB7331E0BB68B3F1FF3F03D113
S32D0000F2784FF00103FB7329E0786839684FF00002FFF79CFE0346FB73FB7B002B1DD17B681B69B3F1FF3F09D0F4
S32D0000F2A07B681B6903F101027B681A617B684FF001025A71BB683B607B68DA693B689A4294BF00230123DBB20A
S32D0000F2C8002BC2D102E000BF00E000BFFB7B184607F11007BD4680BD80B586B000AF786039603B68002B0ED1BF
S32D0000F2F07B68DB683B613B69002B04D07B68DA693B699A4217D84FF001033B6113E078683968FFF76FFDB86029
S32D0000F318BB68012B02D84FF001036DE07B68DA69BB689A4201D9BB6866E03B683B613B697B6100E000BF7B6964
S32D0000F34003F101037B617B68DA697B699A4209D84FF002037B617A693B699A4202D94FF000034DE07868796975
S32D0000F368FFF744FDB860BB68002B0FD0BB68B3F1FF3F02D0BB68012B01D1BB683CE07A693B699A42D6D14FF07B
S32D0000F390000335E000BF786879696FF07042FFF711FE0346FB73FB7B002B09D13B68002B06D0786839687A6966
S32D0000F3B8FFF704FE0346FB73FB7B002B12D17B687A69DA607B681B69B3F1FF3F13D07B681B6903F1FF327B6859
S32D0000F3E01A617B684FF001025A7108E0FB7B012B02D14FF0FF3301E04FF001037B617B69184607F11807BD466A
S32D0000F40880BD00BF80B487B000AF786039607B685B6A03F104033B613B684FEA53227B681B689B78B2FBF3F3B3
S32D0000F4307B613B691B68FB603B6903F104033B61FB68002B02D14FF0000311E07A69FB689A4208D37A69FB683E
S32D0000F458D31A7B613B6903F104033B61E5E700BF3B691A687B69D318184607F11C07BD4680BC704780B584B02A
S32D0000F48000AF78600B467B807B687A88DA807B689B68FB60FB68012B05D07B681B68DA69FB689A4202D84FF0A6
S32D0000F4A8020372E0FB68002B08D17B681B681B78032B03D17B681B689B6AFB60FB68002B16D17B68FA68DA60C3
S32D0000F4D07B681B681B897A889A4202D34FF0020357E07B681B689A6A7B884FEA13139BB2D2187B681A613EE057
S32D0000F4F87B681B689B784FEA03137B811DE07B681B681846F968FFF771FCF860FB68B3F1FF3F02D14FF00103EA
S32D0000F52037E0FB68012B05D97B681B68DA69FB689A4202D84FF002032BE07A887B89D31A7B807A887B899A4258
S32D0000F54834BF00230123DBB2002BD8D17B68FA68DA607B681B681846F968FFF725FC02467B884FEA13139BB248
S32D0000F570D2187B681A617B681B6803F134027B8803F00F034FEA4313D2187B685A614FF00003184607F11007C7
S32D0000F598BD4680BD90B585B000AF786039607B68DB8803F101033B813B89002B03D07B681B69002B02D14FF00B
S32D0000F5C00403E2E03B8903F00F03002B40F0CC807B681B6903F101027B681A617B68DB68002B09D17B681B6897
S32D0000F5E81B893A899A42C0F0BB804FF00403C8E03B894FEA13139BB21A467B681B689B7803F1FF331340002BEC
S32D0000F61040F0AA807B681A687B68DB6810461946FFF7E8FBF860FB68012B02D84FF00203ABE0FB68B3F1FF3F84
S32D0000F63802D14FF00103A4E07B681B68DA69FB689A4200F281803B68002B02D14FF0040397E07B681A687B6889
S32D0000F660DB6810461946FFF73BFEF860FB68002B02D14FF0070388E0FB68012B02D14FF0020382E0FB68B3F1DC
S32D0000F688FF3F02D14FF001037BE07B681B6818464FF00001FFF74CFA0346002B0CBF00230123DBB2002B02D055
S32D0000F6B04FF0010369E07B681B6803F1340318464FF000014FF40072FFF7B2F97B681C687B681B681846F9688F
S32D0000F6D8FFF76AFB034623634FF00003FB7220E07B681B684FF001021A717B681B6818464FF00001FFF71CFAE8
S32D0000F7000346002B0CBF00230123DBB2002B02D04FF0010339E07B681B681A6B02F101021A63FB7A03F10103A4
S32D0000F728FB727B681B689B78FA7A9A422CBF00230123DBB2002BD3D17B681B687A681268116BFA7A8A1A1A631C
S32D0000F7507B68FA68DA607B681B681846F968FFF727FB02467B681A617B683A89DA807B681B6803F134023B89D5
S32D0000F77803F00F034FEA4313D2187B685A614FF00003184607F11407BD4690BD80B586B000AF786078684FF033
S32D0000F7A00001FFF76BFE0346FB75FB7D002B01D0FB7D47E07B681A687B681B6910461946FFF7BAF90346FB752C
S32D0000F7C8FB7D002B36D17B685B693B613B691B78FB73FB7B002B03D14FF00403FB752CE03B6903F10B031B7811
S32D0000F7F003F00803002B0DD17B689B69386919464FF00B02FFF736F90346002B02D14FF0010301E04FF00003DF
S32D0000F818002B11D178684FF00001FFF7BBFE0346FB75FB7D002B14BF00230123DBB2002BBCD102E000BF00E0AA
S32D0000F84000BFFB7D184607F11807BD4680BD00BF80B584B000AF786078684FF00001FFF70DFE0346FB73FB7BB1
S32D0000F868002B29D17B681A687B681B6910461946FFF75EF90346FB73FB7B002B19D17B685B691B78BB73BB7B9F
S32D0000F890E52B14D0BB7B002B11D078684FF00101FFF77CFE0346FB73FB7B002B14BF00230123DBB2002BD9D1AF
S32D0000F8B802E000BF00E000BFFB7B002B23D17B681A687B681B6910461946FFF731F90346FB73FB7B002B16D16D
S32D0000F8E07B685B69BB60B8684FF000014FF02002FFF79EF87B689B69B86819464FF00B02FFF76EF87B681B6877
S32D0000F9084FF001021A71FB7B184607F11007BD4680BD00BF80B588B000AF786039603B681B68FB6003E0FB68CE
S32D0000F93003F10103FB60FB681B782F2B03D0FB681B785C2B02D14FF0010301E04FF00003002BECD17B689B69AE
S32D0000F958BB60B8684FF020014FF00B02FFF764F84FF00003FB774FF000033B613B697B614FF00803BB61FA686E
S32D0000F9807B69D3181B782E2B39D1FA687B69D3181B78BB777B6903F101037B61BB7F2E2B0CD17B69022B09D884
S32D0000F9A8BA683B69D318BA7F1A703B6903F101033B61E6E700BFBB7F2F2B08D0BB7F5C2B05D0BB7F202B02D997
S32D0000F9D04FF00603C5E0FA687B69D2183B681A60BB6803F10B02BB7F202B02D84FF0240301E04FF02003137020
S32D0000F9F84FF00003B1E0FA687B69D3181B78BB777B6903F101037B61BB7F202B68D9BB7F2F2B65D0BB7F5C2B10
S32D0000FA2062D0BB7F2E2B03D03A69BB699A4214D3BB69082B02D1BB7F2E2B02D04FF006038FE04FF008033B616A
S32D0000FA484FF00B03BB61FB7F4FEA8303FB7700BFD1E7BB7F5BB2002B0CDAFB7F43F00303FB77BB7FA3F1800238
S32D0000FA7048F6BC03C0F201039B5CBB77BB7F48F22470C0F201001946FFF732F80346002B0CBF00230123DBB23F
S32D0000FA98002B02D04FF006035FE0BB7F402B07D9BB7F5A2B04D8FB7F43F00203FB770DE0BB7F602B0AD9BB7FA9
S32D0000FAC07A2B07D8FB7F43F00103FB77BB7FA3F12003BB77BA683B69D318BA7F1A703B6903F101033B618AE731
S32D0000FAE800BFFA687B69D2183B681A60BB7F202B02D84FF0040301E04FF00003BB773B69002B02D14FF0060300
S32D0000FB1027E0BB681B78E52B03D1BB684FF005021A70BB69082B03D1FB7F4FEA8303FB77FB7F03F00303012BBE
S32D0000FB3803D1BB7F43F01003BB77FB7F03F00C03042B03D1BB7F43F00803BB77BB6803F10B03BA7F1A704FF0C9
S32D0000FB600003184607F12007BD4680BD80B584B000AF786039603B681B782F2B03D03B681B785C2B08D13B6892
S32D0000FB8803F101033B607B684FF000029A6004E07B681B689A697B689A603B681B781F2B0BD878684FF00001F1
S32D0000FBB0FFF764FC0346FB737B684FF000025A6175E03B4678681946FFF7A8FE0346FB73FB7B002B64D178681D
S32D0000FBD8FFF7DCFD0346FB737B689B69DB7ABB73FB7B002B21D0FB7B042B57D1BB7B03F02003002B10D07B6876
S32D0000FC004FF000029A607B684FF000025A614FF00003FB73BB7B03F00403002B44D13EE0BB7B03F00403002B23
S32D0000FC283ED14FF00503FB733AE0BB7B03F00403002B37D17B685B69BB60BB6803F10B031B7803F01003002BC2
S32D0000FC5003D14FF00503FB7329E0BB6803F115031B784FEA03239AB2BB6803F114031B7813439BB29BB24FEA9D
S32D0000FC780342BB6803F11B031B784FEA032399B2BB6803F11A031B780B439BB29BB21A437B689A6091E790E7CF
S32D0000FCA000BF04E000BF02E000BF00E000BFFB7B184607F11007BD4680BD00BF80B582B000AF786039607B6848
S32D0000FCC85A787B6803F13403104619463A684FF0010302F0B9FE0346002B0CBF00230123DBB2002B02D04FF09C
S32D0000FCF0030356E07B6893F833324FEA03239AB27B6893F8323213439BB21AB24AF65523CFF6FF739A4202D04E
S32D0000FD184FF0020341E07B6893F86D304FEA03627B6893F86C304FEA03431A437B6893F86B304FEA03231A4304
S32D0000FD407B6893F86A30134323F07F4244F24613C0F254039A4202D14FF0000321E07B6893F889304FEA036214
S32D0000FD687B6893F888304FEA03431A437B6893F887304FEA03231A437B6893F88630134323F07F4244F24613AD
S32D0000FD90C0F254039A4202D14FF0000301E04FF00103184607F10807BD4680BD80B592B000AFF860B960134692
S32D0000FDB8FB71FB681B68FB62FB6A1B78A3F130033B643B6C092B0DD8FB6A03F101031B783A2B07D1FB6A03F1CA
S32D0000FDE00203FB62FB68FA6A1A6005E041F26A13C1F6FF731B783B643B6C002B02D04FF00B03C2E241F2641323
S32D0000FE08C1F6FF733A6C53F82230BB62BB68BA6A1A60BB6A002B02D14FF00C03B1E2BB6A1B78002B1CD0BB6A8A
S32D0000FE305B78184603F0A0F8034687F8273097F8273003F00103002B0ED1FB79002B08D097F8273003F004038B
S32D0000FE58002B02D04FF00A0393E24FF0000390E2BB6A4FF000021A703B6CDAB2BB6A5A70BB6A5B78184602F0B0
S32D0000FE8029FB034687F8273097F8273003F00103002B02D04FF0030377E2FB79002B08D097F8273003F0040342
S32D0000FEA8002B02D04FF00A036BE24FF00003FB63B86AF96BFFF7FEFE034687F8473097F84730012B2AD1BB6AED
S32D0000FED003F5F9733B623B6A03F104031B78002B20D03B6A03F10B031B784FEA03623B6A03F10A031B784FEA6B
S32D0000FEF803431A433B6A03F109031B784FEA03231A433B6A03F108031B781343FB63B86AF96BFFF7CFFE0346C8
S32D0000FF2087F8473097F84730032B02D14FF001032BE297F84730002B02D04FF00D0324E2BB6A93F840304FEAB5
S32D0000FF4803239AB2BB6A93F83F3013439BB21BB2B3F5007F02D04FF00D0312E2BB6A93F84B304FEA03239AB278
S32D0000FF70BB6A93F84A3013439BB29BB2BB63BB6B002B15D1BB6A93F85B304FEA0362BB6A93F85A304FEA034362
S32D0000FF981A43BB6A93F859304FEA03231A43BB6A93F858301343BB63BB6ABA6B1A62BB6A93F84430FB77BB6ABC
S32D0000FFC0FA7FDA70FB7F012B05D0FB7F022B02D04FF00D03D9E1FA7FBB6B02FB03F3BB63BB6A93F84130FB7710
S32D0000FFE8BB6AFA7F9A70FB7F002B06D0FA7FFB7F03F1FF331340002B02D04FF00D03C0E1BB6A93F846304FEA10
S32D0001001003239AB2BB6A93F8453013439BB29AB2BB6A1A81BB6A1B8903F00F03002B02D04FF00D03A9E1BB6AB2
S32D0001003893F848304FEA03239AB2BB6A93F8473013439BB29BB27B637B6B002B15D1BB6A93F857304FEA03622A
S32D00010060BB6A93F856304FEA03431A43BB6A93F855304FEA03231A43BB6A93F8543013437B63BB6A93F84330E3
S32D000100884FEA03239AB2BB6A93F8423013439BB2BB83BB8B002B02D14FF00D0371E1BA8BBB6BD218BB6A1B8998
S32D000100B04FEA13139BB2D318BB617A6BBB699A4202D24FF00D0360E17A6BBB69D21ABB6A9B78B2FBF3F37B6189
S32D000100D87B69002B02D14FF00D0352E14FF0010387F847307A6940F6F5739A4203D94FF0020387F847307A6906
S32D000101004FF6F5739A4203D94FF0030387F847307B6903F10202BB6ADA61FA6BBB69D218BB6ADA62BA8BFB6B75
S32D00010128D218BB6A5A6297F84730032B23D1BB6A1B89002B02D04FF00D0322E1BB6A93F863304FEA0362BB6A97
S32D0001015093F862304FEA03431A43BB6A93F861304FEA03231A43BB6A93F860301A43BB6A9A62BB6ADB694FEA2A
S32D0001017883033B6323E0BB6A1B89002B02D14FF00D03FEE0BB6A5A6ABB6BD218BB6A9A6297F84730022B04D11B
S32D000101A0BB6ADB694FEA43030CE0BB6ADA6913464FEA43039B184FEA5302BB6ADB6903F00103D3183B63BB6ACD
S32D000101C81A6A3B6B03F2FF134FEA53239A4202D24FF00D03D5E0BB6A4FF0FF321A61BB6A4FF00002DA6097F835
S32D000101F04730032B40F0A380BB6A4FF000025A71BB6A93F865304FEA03239AB2BB6A93F8643013439BB29BB293
S32D000102181A46FB6BD218BB6A5A61BB6A5978BB6A03F13402BB6A5B69084611461A464FF0010302F009FC034671
S32D00010240002B4AD1BB6A93F833324FEA03239AB2BB6A93F8323213439BB21AB24AF65523CFF6FF739A4238D132
S32D00010268BB6A93F837304FEA0362BB6A93F836304FEA03431A43BB6A93F835304FEA03231A43BB6A93F83430DB
S32D000102901A4345F25223C4F261139A421DD1BB6A93F81B324FEA0362BB6A93F81A324FEA03431A43BB6A93F81F
S32D000102B819324FEA03231A43BB6A93F818321A4347F27223C6F241139A4202D14FF0010301E04FF00003002B9F
S32D000102E02DD0BB6A93F823324FEA0362BB6A93F822324FEA03431A43BB6A93F821324FEA03231A43BB6A93F800
S32D0001030820321A43BB6ADA60BB6A93F81F324FEA0362BB6A93F81E324FEA03431A43BB6A93F81D324FEA0323DF
S32D000103301A43BB6A93F81C321A43BB6A1A61BB6A97F847201A7041F26813C1F6FF731B8803F101039AB241F2B0
S32D000103586813C1F6FF731A8041F26813C1F6FF731A88BB6ADA80BB6A4FF000021A63BB6A4FF000021A71BB6A47
S32D000103804FF000029A614FF00003184607F14807BD4680BD80B582B000AF78600B467B807B68002B08D07B68E8
S32D000103A81B78002B04D07B68DB887A889A4202D04FF0090313E07B685B78184602F0D8FD034603F00103002B1A
S32D000103D00CBF00230123DBB2002B02D04FF0030301E04FF00003184607F10807BD4680BD80B485B000AF0346F4
S32D000103F83960FB71FB79002B02D04FF00B031FE0FA7941F26413C1F6FF7353F82230FB60FB68002B03D0FB6812
S32D000104204FF000021A703B68002B03D03B684FF000021A70FA7941F26413C1F6FF73396843F822104FF000033D
S32D00010448184607F11407BD4680BC704780B592B000AFF860B9601346FB71FB684FF000021A60FB7903F01F031B
S32D00010470FB71FB7923F00103DBB207F1080107F11C02084611461A46FFF790FC034687F8473007F110037B6313
S32D0001049897F84730002B09D1BB6807F11C0210461946FFF75FFB034687F847303B6B3B6497F84730002B06D160
S32D000104C03B6C002B03D14FF0060387F84730FB7903F01C03002B00F0D48097F84730002B12D097F84730042BEC
S32D000104E807D107F11C031846FFF7AEF9034687F84730FB7943F00803FB713B6B3B6415E03B6C03F10B031B7828
S32D0001051003F01103002B04D04FF0070387F8473008E0FB7903F00403002B03D04FF0080387F8473097F84730DD
S32D00010538002B40F0C480FB7903F00803002B00F0BE804FF00003FB633B6C03F10E03FA6BD2B21A703B6C03F1D0
S32D000105600F03FA6B92B24FEA2222D2B21A703B6C03F11003FA6B4FEA1242D2B21A703B6C03F11103FA6B4FEA2B
S32D000105881262D2B21A703B6C03F10B034FF000021A703B6C03F11C034FF000021A703B6C03F11D034FF00002CD
S32D000105B01A703B6C03F11E034FF000021A703B6C03F11F034FF000021A703B6C03F115031B784FEA03239AB292
S32D000105D83B6C03F114031B7813439BB29BB24FEA03423B6C03F11B031B784FEA032399B23B6C03F11A031B7800
S32D000106000B439BB29BB21343BB633B6C03F11A034FF000021A703B6C03F11B034FF000021A703B6C03F11403B6
S32D000106284FF000021A703B6C03F115034FF000021A70FB694FF001021A71BB6B002B3ED0FB691B6BFB63FB691E
S32D000106501846B96BFEF7E8FD034687F8473097F84730002B2FD1FB69BA6B02F1FF32DA60FB691846F96BFEF7AD
S32D000106785FFA034687F8473021E097F84730002B1DD13B6C03F10B031B7803F01003002B04D04FF0040387F895
S32D000106A0473010E0FB7903F00203002B0BD03B6C03F10B031B7803F00103002B03D04FF0070387F8473097F853
S32D000106C84730002B0FD1FB7903F00803002B03D0FB7943F02003FB71FB691A6BFB68DA61FB683A6C1A6297F840
S32D000106F04730002B51D1FB68FA799A713B6C03F115031B784FEA03239AB23B6C03F114031B7813439BB29BB210
S32D000107184FEA03423B6C03F11B031B784FEA032399B23B6C03F11A031B780B439BB29BB21A43FB681A613B6C29
S32D0001074003F11F031B784FEA03623B6C03F11E031B784FEA03431A433B6C03F11D031B784FEA03231A433B6C67
S32D0001076803F11C031B781A43FB68DA60FB684FF000029A60FB684FF000029A61FB684FF000025A62FA69FB685F
S32D000107901A60FB69DA88FB689A8097F84730184607F14807BD4680BD80B58AB000AFF860B9607A603B60BB686B
S32D000107B8BB613B684FF000021A60FB681A68FB689B8810461946FFF7E1FD0346FB75FB7D002B01D0FB7DA8E176
S32D000107E0FB689B79DBB25BB2002B02DA4FF002039FE1FB689B7903F00203002B02D14FF0070396E1FB68DA683C
S32D000108087B68D218FB68DB689A4280F070814FF000037B606BE1FB689B684FEAC3534FEAD353002B40F02A818E
S32D00010830FB689B684FEA5323DAB2FB681B689B7803F1FF33DBB21340BB75BB7D002B4CD1FB689B68002B11D1D6
S32D00010858FB681B697B627B6A002B20D1FB681B6818464FF00001FEF737FD7862FB687A6A1A6114E0FB685B6A47
S32D00010880002B07D0FB689B68F8681946FEF7BEFD786208E0FB681A68FB685B6910461946FEF71EFD78627B6A20
S32D000108A8002B00F02E817B6A012B09D1FB689B7963F07F03DAB2FB689A714FF0020334E17B6AB3F1FF3F09D12C
S32D000108D0FB689B7963F07F03DAB2FB689A714FF0010326E1FB687A6A5A61FB689B7903F04003002B27D0FB6835
S32D000108F81B685978FB6803F12802FB689B69084611461A464FF0010302F0B0F90346002B0CBF00230123DBB29F
S32D00010920002B09D0FB689B7963F07F03DAB2FB689A714FF00103FCE0FB689B7923F04003DAB2FB689A71FB6815
S32D000109481A68FB685B6910461946FEF72DFA38613B69002B09D1FB689B7963F07F03DAB2FB689A714FF002033A
S32D00010970DFE0BB7D3A69D3183B617B684FEA5323FB61FB69002B4ED0BA7DFB69D218FB681B689B789A4206D963
S32D00010998FB681B689B781A46BB7DD31AFB61FB681B685A78FB69DBB21046B9693A6902F05DF90346002B0CBF0B
S32D000109C000230123DBB2002B09D0FB689B7963F07F03DAB2FB689A714FF00103A9E0FB689A693B69D21AFB69C4
S32D000109E89A4217D2FB6803F12802FB6899693B69CB1A4FEA4323B969CB18104619464FF40072FDF7E9FFFB685F
S32D00010A109B7923F04003DAB2FB689A71FB694FEA43233B6253E0FB689A693B699A4226D0FB689A68FB68DB6899
S32D00010A389A4212D2FB681B685A78FB6803F12803104619463A694FF0010301F0FDFF0346002B02D04FF0010384
S32D00010A6001E04FF00003002B09D0FB689B7963F07F03DAB2FB689A714FF0010359E0FB683A699A61FB689B6817
S32D00010A884FEAC3534FEAD353C3F500733B623A6A7B689A4201D97B683B62FB689B684FEAC3534FEAD35303F104
S32D00010AB02803FA68D3181846B9693A6AFDF790FFFB689B7943F04003DAB2FB689A71BA693B6AD318BB61FB68DF
S32D00010AD89A683B6AD218FB689A603B681A683B6AD2183B681A607A683B6AD31A7B607B68002B0CBF00230123C1
S32D00010B00DBB2002B7FF48BAE00E000BFFB689A68FB68DB689A4203D9FB689A68FB68DA60FB689B7943F0200331
S32D00010B28DAB2FB689A714FF00003184607F12807BD4680BD80B586B000AF78607B681A687B689B88104619468B
S32D00010B50FFF720FC0346FB75FB7D002B40F0C8807B689B7903F02003002B00F0C1807B689B7903F04003002BCF
S32D00010B7820D07B681B6859787B6803F128027B689B69084611461A464FF0010302F06EF80346002B0CBF00233D
S32D00010BA00123DBB2002B02D04FF00103A1E07B689B7923F04003DAB27B689A717B681A687B68DB6910461946AC
S32D00010BC8FDF7B6FF0346FB75FB7D002B40F08C807B681B6A3B613B6903F10B033A6902F10B02127842F0200292
S32D00010BF0D2B21A703B6903F11C037A68D268D2B21A703B6903F11D037A68D26892B24FEA2222D2B21A703B69A0
S32D00010C1803F11E037A68D2684FEA1242D2B21A703B6903F11F037A68D2684FEA1262D2B21A703B6903F11A039B
S32D00010C407A681269D2B21A703B6903F11B037A68126992B24FEA2222D2B21A703B6903F114037A6812694FEAF3
S32D00010C681242D2B21A703B6903F115037A6812694FEA124292B24FEA2222D2B21A704FF00003FB603B6903F15D
S32D00010C901603FA68D2B21A703B6903F11703FA6892B24FEA2222D2B21A703B6903F11803FA684FEA1242D2B2A3
S32D00010CB81A703B6903F11903FA684FEA1262D2B21A707B689B7923F02003DAB27B689A717B681B684FF0010263
S32D00010CE01A717B681B681846FDF79EFF0346FB75FB7D184607F11807BD4680BD80B584B000AF78607868FFF759
S32D00010D0819FF0346FB73FB7B002B03D17B684FF000021A60FB7B184607F11007BD4680BD80B586B000AF034654
S32D00010D303960FB71FB793B734FF001037B6107F10C0207F11003386811467A69FFF72CFD3A697B699A4202D10E
S32D00010D584FF0010301E04FF0FF33184607F11807BD4680BD80B584B000AF786039604FF00003FB6019E07B6820
S32D00010D801B7818463968FFF7CFFF0346B3F1FF3F14BF00230123DBB2002B02D04FF0FF3311E07B6803F10103E2
S32D00010DA87B60FB6803F10103FB607B681B78002B0CBF00230123DBB2002BDCD1FB68184607F11007BD4680BD63
S32D00010DD080B485B000AF786039604FF00103FB604FF00003BB604FF00003BB6008E0FB687A6802FB03F3FB6098
S32D00010DF8BB6803F10103BB60BA683B689A42ACBF00230123DBB2002BEDD1FB68184607F11407BD4680BC704703
S32D00010E2080B598B000AFF860B9607A604FF000033B643B6CFB6378E3BB681B7887F84730BB6803F10103BB6009
S32D00010E4897F84730002B00F0778397F84730252B0FD097F847301846F968FFF761FFF863FB6BB3F1FF3F00F07D
S32D00010E7053834FF00103FB634EE34FF0000387F85F304FF000033B65BB681B7887F84730BB6803F10103BB6097
S32D00010E9897F84730302B0CD14FF0010387F85F30BB681B7887F84730BB6803F10103BB600FE097F847302D2B6D
S32D00010EC00BD14FF0020387F85F30BB681B7887F84730BB6803F10103BB6097F847302E2B1ED1BB681B7887F870
S32D00010EE84730BB6803F10103BB6015E03A6D13464FEA83039B184FEA43031A4697F84730D318A3F130033B6590
S32D00010F10BB681B7887F84730BB6803F10103BB6097F847302F2B06D997F84730392B02D84FF0010301E04FF0EA
S32D00010F380003002BDAD197F847306C2B03D097F847304C2B0DD197F85F3043F0040387F85F30BB681B7887F84B
S32D00010F604730BB6803F10103BB6097F84730002B00F0E88297F8473087F8463097F84630602B09D997F84630B8
S32D00010F887A2B05D897F84630A3F1200387F8463097F84630A3F14203162B00F2C28101A151F823F0031301009E
S32D00010FB0EB120100171301002B130100DD1001002B1301002B1301002B1301002B1301002B1301002B13010042
S32D00010FD82B1301002B1301000D1301002B1301002B1301002B130100091001002B130100171301002B130100CB
S32D000110002B130100211301007B6803F104027A601B687B624FF000037B6503E07B6D03F101037B657A6A7B6DA5
S32D00011028D3181B78002B0CBF00230123DBB2002BF0D14FF000033B6409E04FF02000F968FFF76EFEF863FB6BB8
S32D000110503A6CD3183B6497F85F3003F00203002B0FD17A6D3B6D9A422CBF00230123DBB27A6D02F101027A653A
S32D00011078002B02D04FF0010301E04FF00003002BDBD1786AF968FFF76DFEF863FB6B3A6CD3183B6409E04FF052
S32D000110A02000F968FFF740FEF863FB6B3A6CD3183B647A6D3B6D9A422CBF00230123DBB27A6D02F101027A6595
S32D000110C8002BE8D1FB6BB3F1FF3F00F023823B6CFB631FE27B6803F1070323F0070303F108027A60D3E900237D
S32D000110F0C7E90C23D7E90C23C7E90A234FF00003FB64D7E90C014FF000024FF00003FBF7A9FD0346002B16D043
S32D000111184FF02D00F968FFF703FEF863FB6B3A6CD3183B643B6B3B637B6B83F000437B63BB6ABB62FB6A83F01B
S32D000111400043FB6212E011E0D7E90A014FF000024FF00003C4F22403FBF73CFC02460B46C7E90A23FB6C03F1D7
S32D000111680103FB64D7E90A01FBF7A0FD0346002B0CBF00230123DBB2002BE1D1FB6C03F1FF337B653EE07B6D38
S32D000111904FF00A001946FFF71BFE03461846FBF789FA02460B46D7E90C01FBF713FC02460B4610461946FBF7B6
S32D000111B87DFD03463B623A6A46F26763C6F2666383FB02134FEAA3014FEAE273C91A0B464FEA83035B184FEAE4
S32D000111E04303D31A3B623B6A03F130033B623B6ADBB21846F968FFF797FDF863FB6B3A6CD3183B647B6D03F15F
S32D00011208FF337B657B6DB3F1FF3F0CBF00230123DBB2002BB7D14FF02E00F968FFF780FDF863FB6B3A6CD318F6
S32D000112303B643B6D002B02D14FF003033B654FF00103BB6540E0BB6D4FF00A001946FFF7BFFD03461846FBF7C7
S32D000112582DFA02460B4610461946D7E90C23FBF78BFA02460B4610461946FBF71FFD03463B623A6A46F26763A4
S32D00011280C6F2666383FB02134FEAA3014FEAE273C91A0B464FEA83035B184FEA4303D31A3B623B6A03F1300385
S32D000112A83B623B6ADBB21846F968FFF739FDF863FB6B3A6CD3183B64BB6D03F10103BB65BA6D3B6D9A428CBF36
S32D000112D000230123DBB2002BB5D1FB6BB3F1FF3F00F01E813B6CFB631AE17B6803F104027A601B68DBB218466E
S32D000112F8F968FFF715FDF8630FE14FF0020387F85E3016E04FF0080387F85E3011E04FF00A0387F85E300CE03F
S32D000113204FF0100387F85E3007E097F847301846F968FFF7F9FCF863F3E097F85F3003F00403002B05D07B687F
S32D0001134803F104027A601B680EE097F84630442B05D17B6803F104027A601B6804E07B6803F104027A601B688F
S32D00011370BB6497F84630442B0CD1BB6C002B09DABB6CC3F10003BB6497F85F3043F0080387F85F304FF0000300
S32D00011398BB6597F85E20BB6CB3FBF2F102FB01F29B1A87F8463097F85E30BA6CB2FBF3F3BB6497F84630092B79
S32D000113C00DD997F84730782B02D14FF0270301E04FF0070397F846209B1887F8463097F8463003F13003DAB2B4
S32D000113E807F11001BB6DCB181A70BB6D03F10103BB65BB6C002B05D0BB6D0F2B02D84FF0010301E04FF000032F
S32D00011410002BC2D197F85F3003F00803002B0AD007F11002BB6DD3184FF02D021A70BB6D03F10103BB65BB6D51
S32D000114387B6597F85F3003F00103002B02D04FF0300301E04FF0200387F846304FF000033B640AE097F8463019
S32D000114601846F968FFF760FCF863FB6B3A6CD3183B6497F85F3003F00203002B0FD17A6D3B6D9A422CBF0023C1
S32D000114880123DBB27A6D02F101027A65002B02D04FF0010301E04FF00003002BDAD1BB6D03F1FF33BB6507F129
S32D000114B01002BB6DD3181B781846F968FFF734FCF863FB6B3A6CD3183B64BB6D002B0CBF00230123DBB2002B62
S32D000114D8E5D109E04FF02000F968FFF721FCF863FB6B3A6CD3183B647A6D3B6D9A422CBF00230123DBB27A6D71
S32D0001150002F101027A65002BE8D1FB6BB3F1FF3F07D03B6CFB6304E000BF02E000BF00E000BF3A6CFB6BD31805
S32D000115283B64FB6BB3F1FF3F0CBF00230123DBB2002B7FF47DAC02E000BF00E000BFFB6BB3F1FF3F01D1FB6B87
S32D0001155000E03B6C184607F16007BD4680BD00BF80B588B000AF786039604FF080033B614FF00F03FB604FF053
S32D00011578FF337B614FF00203FB612AE04FF00103BB611AE0FB69BA6902FB03F33A6802FB03F27B68D31ABB603A
S32D000115A0BB68002B09DBBA687B699A4205D2BB687B61FB693B61BB69FB60BB6903F10103BB61BB69102B8CBFD1
S32D000115C800230123DBB2002BDCD1FB694FEA4303FB61FB69B3F5807F8CBF00230123DBB2002BCBD14FF4805302
S32D000115F0C4F20B034FF48052C4F20B02D26A22F00802DA624FF48053C4F20B03DB6A23F47F2323F47F63BB61AF
S32D000116184FF48053C4F20B033A694FEA52024FEA02224FEA02424FEA1242F96801F1FF314FEA0111C9B2114395
S32D00011640BA690A4342F46022DA6203E04FF00A0001F0D8FD4FF48053C4F20B035B6A03F00803002B14BF002367
S32D000116680123DBB2002BEDD14FF48053C4F20B034FF48052C4F20B02D26A42F00802DA624FF48053C4F20B0379
S32D000116904FF48052C4F20B02126B42F480121A6307F12007BD4680BD80B582B000AF786039607B684FF0000287
S32D000116B81A604FF48053C4F20B034FF40042C0F20012DA624FF48053C4F20B03DB6A03F08073002B0CBF00230C
S32D000116E00123DBB2002BF1D14FF48053C4F20B034FF00002C3F8C0204FF48053C4F20B034FF481325A604FF4BA
S32D000117088053C4F20B034FF028029A624FF48053C4F20B034FF001125A643B689B6818464CF66041C0F205012D
S32D00011730FFF716FF4FF48053C4F20B035B6A03F00303002B0CBF00230123DBB2002BF1D14FF45043C4F204039D
S32D0001175840F243421A604FF45043C4F2040340F243425A604FF45043C4F204034FF488629A604FF45043C4F2E7
S32D00011780040340F24342DA604FF45043C4F2040340F243421A614FF45043C4F2040340F243425A614FF4E04312
S32D000117A8C4F204034FF4E042C4F2040202F5815202F11002126842F4003203F5815303F110031A604FF4805320
S32D000117D0C4F20B034FF6FF721A634FF48053C4F20B034FF0B302C0F27F025A634FF48053C4F20B034FF4805246
S32D000117F8C4F20B02D26A42F00062DA624FF48053C4F20B03DB6A03F00063002B0CBF00230123DBB2002BF1D1C7
S32D000118204FF48053C4F20B035B6A03F48033002B0CBF00230123DBB2002B03D07B684FF001021A604FF48053D3
S32D00011848C4F20B034FF48052C4F20B02126B42F080021A634FF00003184607F10807BD4680BD00BF80B400AF9E
S32D000118704FF48053C4F20B035A6A40F207331340002B0CBF00230123DBB21846BD4680BC704700BF80B485B0A6
S32D0001189800AF78604FF48053C4F20B031A6B7B681340FB60FB68002B14BF00230123DBB2002BEFD1FB681846C9
S32D000118C007F11407BD4680BC704700BF80B584B000AF78607B681B7803F03F0248F64813C0F2010353F82230AB
S32D000118E8FB60FB68002B06D17B681B78002B02D04FF001032FE14FF48053C4F20B034FF48052C4F20B02126B1C
S32D0001191042F080021A634FF48053C4F20B035B6A03F00103002B0CBF00230123DBB2002BF1D14FF48053C4F25E
S32D000119380B037A6852689A60FB6823F44003FB607B685B784FEA835303F44003FA681343FB607B685B78022BCF
S32D0001196003D1FB6843F40013FB607B685B78042B16D1FB6803F44033B3F5003F08D1FB6823F44033FB60FB6878
S32D0001198843F44033FB6007E0FB6823F44033FB60FB6843F40033FB604FF48053C4F20B034FF48052C4F20B0222
S32D000119B052684FEA02424FEA12425A607B68DB68002B31D0FB6803F44033B3F5403F03D0FB6843F40013FB6069
S32D000119D87B681B7A002B03D0FB6843F01003FB607B68DB68012B03D9FB6843F02003FB607B68DB68B3F1FF3F1C
S32D00011A0012D04FF48053C4F20B034FF48052C4F20B0251687A68D2684FEA02420A435A60FB6843F00203FB60D4
S32D00011A284FF48053C4F20B034FF000021A604FF48053C4F20B03FA68DA604FF00100C0F20E00FFF723FF034623
S32D00011A50012B0CBF00230123DBB2002B10D04FF48053C4F20B034FF48052C4F20B02126B42F4702242F0010265
S32D00011A781A634FF001036EE04FF48053C4F20B031B6B03F08003002B0CBF00230123DBB2002B0ED04FF4805372
S32D00011AA0C4F20B034FF48052C4F20B02126B42F001121A634FF0010351E04FF48053C4F20B031B6B03F48033BE
S32D00011AC8002B0CBF00230123DBB2002B0ED04FF48053C4F20B034FF48052C4F20B02126B42F001121A634FF0EC
S32D00011AF0FF3334E0FB6803F44033002B21D04FF48053C4F20B031A697B681A61FB6803F44033B3F5803F14D1C4
S32D00011B184FF48053C4F20B035A697B685A614FF48053C4F20B039A697B689A614FF48053C4F20B03DA697B68A8
S32D00011B40DA614FF48053C4F20B034FF48052C4F20B02126B42F001021A634FF00003184607F11007BD4680BD6B
S32D00011B6880B592B000AF786039604FF00003FB633B68BB6341F28413C1F6FF737B637B6B002B03D140F6012346
S32D00011B9000F09BBC41F28833C1F6FF733B633B6B002B03D140F60B2300F08FBC3B6B1B68FB62FB6A002B03D1FC
S32D00011BB840F60B2300F085BC7B6841F20432934200F0348241F2043293421BD841F20132934238D041F20132C8
S32D00011BE0934207D8032B00F03884092B00F0248400F061BC41F20232934200F00F8241F20332934200F0B98349
S32D00011C0800F055BC41F20732934200F0468341F2073293420BD841F20532934200F0308241F20632934200F07D
S32D00011C300B8300F040BC41F20832934200F0B28241F20932934200F0C08200F034BC786B48F63C11C0F201012E
S32D00011C58FFF726FDF863FB6B002B40F02C844FF0000387F847304FF0000387F82B304FF0000387F82A304FF0CA
S32D00011C80000387F829304FF0000387F846304FF0000387F828304FF000033B724FF000037B724FF00003FB604F
S32D00011CA84FF000033B744FF000037B6107F108031846FFF707FE0346002B0CBF00230123DBB2002B03D04FF052
S32D00011CD00103FB63F8E340F24C4001F093FA4FF008033B724FF000037B724FF4D573FB604FF000033B744FF030
S32D00011CF800037B6107F108031846FFF7E3FD38643B6C002B0BD1BA69FB689A4203D04FF00103FB63D4E34FF091
S32D00011D20010387F846304FF0010387F8283097F82830002B00F0C5804FF037033B724FF000037B724FF00003A3
S32D00011D48FB604FF000033B744FF000037B6107F108031846FFF7B6FD38643B6C002B03D04FF00103FB63ABE388
S32D00011D704FF069033B724FF000037B724FF00003FB604FF000033B744FF000037B6107F108031846FFF79AFD23
S32D00011D980346002B0CBF00230123DBB2002B03D04FF00103FB638BE3BB6903F44013002B00F083804FF000032E
S32D00011DC03B644FF00A0001F01DFA3B6C03F101033B644FF037033B724FF000037B724FF00003FB604FF0000392
S32D00011DE83B744FF000037B6107F108031846FFF769FD0346002B0CBF00230123DBB2002B03D04FF00103FB6390
S32D00011E1036E04FF069033B724FF000037B7297F84630002B05D04FF00003C4F23003FB6002E04FF44013FB60A8
S32D00011E384FF000033B744FF000037B6107F108031846FFF73FFD0346002B0CBF00230123DBB2002B03D04FF089
S32D00011E600103FB630CE0BB69002B05DB3B6C632B02D84FF0010301E04FF00003002BA0D1FB6B002B40F01D8364
S32D00011E883B6C632B04D94FF0000387F8463014E04FF0010387F8473097F84630002B0CD04FF0000387F8463072
S32D00011EB0BB6903F08043002B03D04FF0010387F8463097F82A30002B03D07B6B4FF007021A6097F82930002B51
S32D00011ED803D07B6B4FF008021A6097F82B30002B03D07B6B4FF004021A6097F84730002B0BD07B6B4FF002029D
S32D00011F001A6097F84630002B03D07B6B4FF003021A6097F82B30002B0FD097F84730002B0BD07B6B4FF0050265
S32D00011F281A6097F84630002B03D07B6B4FF006021A604FF45043C4F204034FF000021A604FF45043C4F2040385
S32D00011F504FF000025A604FF45043C4F204034FF000029A604FF45043C4F204034FF00002DA604FF45043C4F2FF
S32D00011F7804034FF000021A614FF45043C4F204034FF000025A61FB6A9A68FB6A5B6810461946FFF7E1FA4FF490
S32D00011FA05043C4F2040340F243421A604FF45043C4F2040340F243425A604FF45043C4F204034FF488629A60D3
S32D00011FC84FF45043C4F2040340F24342DA604FF45043C4F2040340F243421A614FF45043C4F2040340F2434257
S32D00011FF05A614FF4E043C4F204034FF4E042C4F2040202F5815202F11002126842F4003203F5815303F110033F
S32D000120181A6055E2B86BFFF755FC38643B6C002B00F04D824FF00203FB6348E2BB6B002B03D14FF00C03FB63B4
S32D0001204042E24FF48053C4F20B03DB6A03F47F434FEA13234FEA43033B644FF48053C4F20B03DB6A03F0F003E3
S32D000120684FEA131303F101023B6C02FB03F33B64FB6A9A683B6CB2FBF3F2BB6B1A601FE2BB6B002B03D14FF015
S32D000120900C03FB6318E2BB6B1B68002B03D14FF00C03FB6310E2FFF7E1FB0346002B14BF00230123DBB2002B5C
S32D000120B870D04FF45043C4F204034FF000021A604FF45043C4F204034FF000025A604FF45043C4F204034FF00B
S32D000120E000029A604FF45043C4F204034FF00002DA604FF45043C4F204034FF000021A614FF45043C4F20403E5
S32D000121084FF000025A61FB6A9A68BB6B1B6810461946FFF721FA4FF45043C4F2040340F243421A604FF450433C
S32D00012130C4F2040340F243425A604FF45043C4F204034FF488629A604FF45043C4F2040340F24342DA604FF4D1
S32D000121585043C4F2040340F243421A614FF45043C4F2040340F243425A614FF4E043C4F204034FF4E042C4F293
S32D00012180040202F5815202F11002126842F4003203F5815303F110031A6095E140F60A23FB6391E1BB6B002B32
S32D000121A803D14FF00C03FB638AE14FF48053C4F20B035B684FEAC3434FEAD343BA6B13607EE1BB6B002B03D1D6
S32D000121D04FF00C03FB6377E1FFF748FB0346002B14BF00230123DBB2002B29D0BB6B1A6840F6FF739A4203D95C
S32D000121F84FF00C03FB6363E14FF48053C4F20B034FF48052C4F20B02526822F4FF5222F01F025A604FF48053F2
S32D00012220C4F20B034FF48052C4F20B025168BA6B12684FEAC2424FEAD2420A435A6043E140F60A23FB633FE105
S32D00012248BB6B002B03D14FF00C03FB6338E14FF48053C4F20B039B6A03F006034FEA53033B643B6C002B04D1CD
S32D00012270BB6B4FF000021A6026E13B6C012B04D1BB6B4FF001021A601EE13B6C102B04D1BB6B4FF002021A6034
S32D0001229816E14FF00503FB6312E1BB6B002B03D14FF00C03FB630BE1FFF7DCFA0346002B14BF00230123DBB2E4
S32D000122C0002B56D0BB6B1B68002B16D14FF48053C4F20B034FF48052C4F20B02926A22F006029A624FF4805309
S32D000122E8C4F20B034FF48052C4F20B02926A9A62E6E0BB6B1B68012B18D14FF48053C4F20B034FF48052C4F20A
S32D000123100B02926A22F006029A624FF48053C4F20B034FF48052C4F20B02926A42F002029A62C9E0BB6B1B684D
S32D00012338022B16D14FF48053C4F20B034FF48052C4F20B02926A22F006029A624FF48053C4F20B034FF48052AF
S32D00012360C4F20B02926A9A62AEE04FF00503FB63AAE040F60A23FB63A6E0BB6B002B03D14FF00C03FB639FE03F
S32D000123884FF48053C4F20B034FF48052C4F20B02D26A42F00062DA624FF48053C4F20B03DB6A03F00063002BC8
S32D000123B00CBF00230123DBB2002BF1D14FF48053C4F20B031B6B03F08003002B0CBF00230123DBB2002B0FD0C8
S32D000123D84FF48053C4F20B034FF48052C4F20B02126B42F080021A637B6B4FF000021A604FF48053C4F20B03FB
S32D000124005B6A03F48033002B0CBF00230123DBB2002B08D07B6B1B68002B08D17B6B4FF001021A6003E07B6B99
S32D000124284FF000021A607B6B1A68BB6B1A6047E0BB6B4FF01C021A60BB6B03F104034FF004021A60BB6B03F1A4
S32D0001245008034FF41E721A6036E04FF00200FFF719FA4FF48053C4F20B031B6B03F4E003002B0CBF002301232E
S32D00012478DBB2002B0ED04FF48053C4F20B034FF48052C4F20B02126B42F4E0021A634FF00403FB634FF4805321
S32D000124A0C4F20B034FF48052C4F20B02126B42F032021A6308E040F60923FB6304E000BF02E000BF00E000BF86
S32D000124C8FB6B184607F14807BD4680BD80B590B000AF0346FB7141F28833C1F6FF73FB6341F26C13C1F6FF7371
S32D000124F0BB63BA6B41F28013C1F6FF731360FB79002B02D04FF0010302E240F20043C1F6FF731B78DBB203F0CF
S32D000125180203002B0CBF00230123DBB2002B06D040F20043C1F6FF731B78DBB2ECE140F20043C1F6FF731B7808
S32D00012540DBB203F00303002B14BF00230123DBB2002B02D04FF00003DAE1BB6B002B03D0BB6B1B68002B02D14F
S32D000125684FF00003D0E1FA6B48F63C13C0F201031360FB6B4FF001025A60BB6B4FF000025A60BB6B4FF000024C
S32D000125909A60BB6B4FF000021A61BB6B4FF000021A73BB6B4FF000025A734FF4E043C4F204034FF4E042C4F2DA
S32D000125B8040202F5815202F11002126842F4003203F5815303F110031A6041F201304FF00001FFF7C5FA03464E
S32D000125E0002B0CBF00230123DBB2002B02D04FF000038DE14FF00003BB6207F1280341F203301946FFF7B0FA6E
S32D000126080346002B0CBF00230123DBB2002B02D04FF0000378E1BB6A022B08D0BB6A032B05D0BB6A052B02D07F
S32D00012630BB6A062B0AD1BB6A032B02D0BB6A062B07D1BB6B4FF001021A7302E04FF000035EE14FF002033B72AE
S32D000126584FF000037B724FF00003FB604FF000033B744FF000037B6107F1080341F202301946FFF775FA034603
S32D00012680002B0CBF00230123DBB2002B02D04FF000033DE14FF003033B724FF000037B724FF00003FB604FF007
S32D000126A800033B744FF000037B6107F1080341F202301946FFF754FA0346002B0CBF00230123DBB2002B02D018
S32D000126D04FF000031CE1BB694FEA13434FEA0343BA6B13614FF009033B724FF000037B72BB6B1B69FB604FF066
S32D000126F800033B744FF000037B6107F1080341F202301946FFF72CFA0346002B0CBF00230123DBB2002B02D0F0
S32D000127204FF00003F4E07B6A03F44003002B27D13B6A4FEA132303F00F037B633B6A03F003033B633B6B4FEA20
S32D000127488322FB694FEA935313433B63FB694FEAD31303F00703FB623B6B03F10102FB6A03F1020302FA03F27D
S32D000127707B6BA3F1090302FA03F2BB6B9A6012E0BB6B4FF001025A73FB694FEA132323F07F4323F440033B63DC
S32D000127983B6B03F101034FEA8322BB6B9A604FF007033B724FF000037B72BB6B1B69FB604FF000033B744FF01C
S32D000127C000037B6107F1080341F202301946FFF7CBF90346002B0CBF00230123DBB2002B02D04FF0000393E0C5
S32D000127E84FF010033B724FF000037B724FF40073FB604FF000033B744FF000037B6107F1080341F202301946AD
S32D00012810FFF7AAF90346002B0CBF00230123DBB2002B02D04FF0000372E0BB6B1B681B68012B56D14FF0370364
S32D000128383B724FF000037B72BB6B1B69FB604FF000033B744FF000037B6107F1080341F202301946FFF784F947
S32D000128600346002B0CBF00230123DBB2002B02D04FF000034CE04FF046033B724FF000037B724FF00203FB60C8
S32D000128884FF000033B744FF000037B6107F1080341F202301946FFF763F90346002B0CBF00230123DBB2002BBB
S32D000128B002D04FF000032BE04FF00103BB6207F1280341F207301946FFF74EF90346002B0CBF00230123DBB23E
S32D000128D8002B02D04FF0000316E040F20043C1F6FF731B78DBB223F00103DAB240F20043C1F6FF731A7040F2E1
S32D000129000043C1F6FF731B78DBB203F00303DBB2184607F14007BD4680BD00BF80B489B000AF786039607B688A
S32D000129287B6141F28413C1F6FF733B613B69002B02D14FF0000380E03B691B68022B0BD03B691B68032B07D076
S32D000129503B691B68072B03D03B691B68082B0DD14FF48053C4F20B035B6A03F00403002B0CBF00230123DBB291
S32D00012978002BF1D13B68FB6155E0FB69B3F5007F28BF4FF40073FB60FB6803F103034FEA9303BB613BE04FF4E6
S32D000129A08053C4F20B031B6B03F4E003002B0CBF00230123DBB2002B10D04FF48053C4F20B034FF48052C4F297
S32D000129C80B02126B42F4E00242F020021A634FF0000332E04FF48053C4F20B035B6A03F40063002B14BF0023FF
S32D000129F00123DBB2002BF1D14FF48053C4F20B031A6A7B691A607B6903F104037B61BB6903F1FF33BB61BB6919
S32D00012A18002B0CBF00230123DBB2002BBBD1FA69FB68D31AFB61FB69002B0CBF00230123DBB2002BA1D14FF0F5
S32D00012A400103184607F12407BD4680BC704700BF80B58EB000AFB9607A600246FA73BB7341F26C13C1F6FF735A
S32D00012A687B63FB7B002B02D1BB7B002B02D14FF0040385E040F20043C1F6FF731B78DBB203F00103002B0CBF63
S32D00012A9000230123DBB2002B02D04FF0030373E0BB68002B02D14FF000036DE07B6B1B7B002B03D17B684FEA67
S32D00012AB843237B60BB7B012B2CD14FF011033B754FF000037B757B68BB614FF001033B77BB7B3B6207F1140344
S32D00012AE041F202301946FFF73FF80346002B14BF00230123DBB2002B3ED0B8684FF40071FFF70CFF0346002B39
S32D00012B080CBF00230123DBB2002B31D04FF00003BB732DE04FF012033B754FF000037B757B68BB614FF00103DE
S32D00012B303B77BB7B3B6207F1140341F202301946FFF712F80346002B14BF00230123DBB2002B11D0BB7B4FEA88
